:020000040800F2
:10000000B8060020CD010008190700081D040008EB
:10001000E904000887020008A71500080000000096
:10002000000000000000000000000000F9080008C7
:10003000CB02000800000000A10700080D0A00081C
:10004000E7010008E7010008E7010008E7010008F0
:10005000E7010008E7010008E7010008E7010008E0
:10006000E7010008E7010008E7010008E7010008D0
:10007000E7010008E7010008E7010008E7010008C0
:10008000E7010008E7010008E7010008E7010008B0
:10009000E7010008E7010008E7010008E7010008A0
:1000A000E7010008E7010008E7010008E701000890
:1000B000710A0008E7010008E7010008E7010008ED
:1000C000E7010008E7010008E7010008E701000870
:1000D000E7010008E7010008E7010008E701000860
:1000E000E7010008E7010008E7010008E701000850
:1000F000E7010008E7010008E7010008E701000840
:10010000E7010008E7010008E7010008E70100082F
:10011000E7010008E7010008E7010008E70100081F
:10012000E7010008E7010008E7010008E70100080F
:1001300000F002F800F03AF80AA090E8000C8244BF
:100140008344AAF10107DA4501D100F02FF8AFF29C
:10015000090EBAE80F0013F0010F18BFFB1A43F0A5
:10016000010318475021000070210000103A24BFFD
:1001700078C878C1FAD8520724BF30C830C144BF0C
:1001800004680C607047000000230024002500264E
:10019000103A28BF78C1FBD8520728BF30C148BFEA
:1001A0000B6070471FB51FBD10B510BD00F031F8D2
:1001B0001146FFF7F7FF01F02AFB00F04FF803B4F8
:1001C000FFF7F2FF03BC00F057F800000948804732
:1001D00009480047FEE7FEE7FEE7FEE7FEE7FEE729
:1001E000FEE7FEE7FEE7FEE704480549054A064B41
:1001F00070470000110A000831010008B800002013
:10020000B8060020B8020020B802002070477047EE
:100210007047754600F02CF8AE4605006946534617
:1002200020F00700854618B020B5FFF7DDFFBDE8D8
:1002300020404FF000064FF000074FF000084FF04D
:10024000000B21F00701AC46ACE8C009ACE8C009DE
:10025000ACE8C009ACE8C0098D46704710B504464B
:10026000AFF300802046BDE81040FFF7A8BF0000B4
:10027000004870475400002001491820ABBEFEE73B
:1002800026000200704700BFFEE710B5044624B9FF
:100290004FF47A7000F0F0F916E0012C03D132200F
:1002A00000F048F910E0022C03D1322000F064F98C
:1002B0000AE0032C03D1322000F082F904E0042C80
:1002C00002D1322000F012F910BD7047F8B5074690
:1002D0000C4615461E46ADF800408DF803508DF8CB
:1002E00002606946384600F001F8F8BD2DE9F0419A
:1002F000024600250026002000230024002791F854
:1003000003C00CF00F0591F803C00CF0100CBCF109
:10031000000F03D091F802C04CEA050591F800C027
:10032000BCF1000F31D0146800202BE04FF0010C1D
:100330000CFA00F3B1F800C00CEA03069E4220D18B
:1003400083004FF00F0C0CFA03F7BC4305FA03FCD3
:100350004CEA040491F803C0BCF1280F06D14FF019
:10036000010C0CFA00FCC2F814C00AE091F803C0BA
:10037000BCF1480F05D14FF0010C0CFA00FCC2F89B
:1003800010C0401C0828D1D31460B1F800C0BCF1E3
:10039000FF0F34DD546800202EE000F1080C4FF010
:1003A000010808FA0CF3B1F800C00CEA03069E42FB
:1003B00021D183004FF00F0C0CFA03F7BC4305FA70
:1003C00003FC4CEA040491F803C0BCF1280F05D1EA
:1003D00000F1080C08FA0CF8C2F8148091F803C078
:1003E000BCF1480F07D100F1080C4FF0010808FAE2
:1003F0000CF8C2F81080401C0828CED35460BDE829
:10040000F0810246002093680B400BB1012000E010
:1004100000207047416170470161704700BFFEE7EF
:1004200010B501210C2000F0DDF90121102000F0B1
:10043000D9F90323482202210B48FFF747FF032382
:10044000102220210948FFF741FF03231022082131
:100450000748FFF73BFF20210448FFF7DBFF082197
:100460000348FFF7D7FF10BD000C01400008014012
:100470000010014008B50121102000F0B3F901215E
:10048000242000F0AFF90420ADF8000048208DF8DA
:10049000030003208DF8020069461148FFF726FF8C
:1004A0000820ADF8000010208DF8030003208DF81F
:1004B000020069460A48FFF719FF2020ADF8000046
:1004C00010208DF8030003208DF8020069460548CE
:1004D000FFF70CFF20210348FFF79EFF08BD000037
:1004E000001001400008014000BFFEE770B504465F
:1004F0000C480068001B0B4909684843642190FBC5
:10050000F1F510210848FFF787FF80210748FFF722
:1005100083FFA1B2064800F0B8FDA1B2044800F084
:10052000B6FD70BD2400002000080140000C014011
:100530000008004070B504460B4800686043642121
:1005400090FBF1F5A9B2094800F09FFDA9B2074858
:1005500000F09DFD10210648FFF75CFF8021054853
:10056000FFF758FF70BD0000240000200008004085
:1005700000080140000C014070B504460C480068BA
:100580006043642190FBF1F510210A48FFF744FF16
:1005900080210948FFF73EFFA9B2084800F075FD29
:1005A00003480088401B81B2044800F070FD70BD14
:1005B0002400002000080140000C01400008004019
:1005C00070B504460C4800686043642190FBF1F567
:1005D00010210A48FFF71EFF80210948FFF71CFF82
:1005E00005480088401B81B2064800F04EFDA9B2C4
:1005F000044800F04CFD70BD2400002000080140BC
:10060000000C0140000800402DE9F04104460D4671
:10061000154800686043642190FBF1F612480068B9
:10062000684390FBF1F7642C01DB0F480668002C4F
:1006300000DC0026642D01DB0B480768002D00DC80
:100640000027B9B2094800F020FDB1B2074800F018
:100650001EFD10210648FFF7DDFE80210548FFF74B
:10066000D9FEBDE8F0810000240000200008004011
:1006700000080140000C014010B504461021094853
:10068000FFF7C8FE80210848FFF7C4FE0021074895
:1006900000F0FBFC0021054800F0F9FCA0B200F0DE
:1006A000FDFF10BD00080140000C014000080040A3
:1006B00010B510210748FFF7ADFE80210648FFF76F
:1006C000A9FE0021054800F0E0FC0021034800F0ED
:1006D000DEFC10BD00080140000C01400008004095
:1006E00010B5044610210A48FFF794FE4FF400713C
:1006F0000848FFF78FFE80210648FFF78BFE4FF476
:1007000080710448FFF786FEA0B200F0C7FF10BD5D
:1007100000080140000C01407047000070B5002146
:1007200000230F22C47804B3154C246804F4E06459
:10073000C4F5E064210AC1F10403CA40447804FA14
:1007400003F184781440214309010E4C0678A15529
:10075000047804F01F050124AC4005786D11AD004C
:1007600005F1E025C5F8004109E0047804F01F0513
:100770000124AC40044D0678761145F8264070BD42
:100780000CED00E000E400E080E100E002490143FC
:10079000024A1160704700000000FA050CED00E00D
:1007A0007047000029B1064AD2690243044BDA615E
:1007B00004E0034AD2698243014BDA6170470000CA
:1007C0000010024029B1064A12690243044B1A6123
:1007D00004E0034A12698243014B1A61704700002A
:1007E0000010024029B1064A92690243044B9A6103
:1007F00004E0034A92698243014B9A61704700000A
:100800000010024029B1064AD2680243044BDA6064
:1008100004E0034AD2688243014BDA60704700006B
:100820000010024030B500210022002400232D4D8D
:100830006D6805F00C0121B1042905D0082923D1E8
:1008400005E0294D056022E0274D05601FE0254D9C
:100850006D6805F47012234D6D6805F4803402252F
:1008600005EB92421CB9214D554305600BE01D4D2F
:100870006D6805F400351DB11C4D5543056002E05F
:10088000194D5543056002E0174D056000BF00BFDC
:10089000144D6D6805F0F0010909154D6B5C056894
:1008A000DD4045600F4D6D6805F4E061090A104DAB
:1008B0006B5C4568DD4085600A4D6D6805F46051EC
:1008C000C90A0B4D6B5C4568DD40C560054D6D6820
:1008D00005F44041890B074D6B5CC568B5FBF3F52A
:1008E000056130BD0010024000127A0000093D0091
:1008F0002D0000203D000020704710B500F002F8E8
:1009000010BD00000CB50020019000903348006835
:1009100040F480303149086000BF3048006800F47E
:10092000003000900198401C0190009818B901987F
:10093000B0F5A06FF1D12948006800F4003010B183
:100940000120009001E0002000900098012843D190
:100950002348006840F010002149086008460068FC
:1009600020F0030008600846006840F002000860BC
:100970001A48406819494860084640684860084677
:10098000406840F4806048600846406820F47C106D
:1009900048600846406840F4E8104860084600682F
:1009A00040F08070086000BF0C48006800F00070E4
:1009B0000028F9D00948406820F003000749486042
:1009C0000846406840F00200486000BF03484068A5
:1009D00000F00C000828F9D10CBD00000010024006
:1009E00000200240042808D14FF0E021096941F0BD
:1009F00004014FF0E022116107E04FF0E0210969A6
:100A000021F004014FF0E0221161704770470000AF
:100A100010B51348006840F001001149086008460D
:100A20004068104908400E494860084600680E4971
:100A300008400B4908600846006820F480200860E0
:100A40000846406820F4FE0048604FF41F008860AC
:100A5000FFF753FF4FF000600449086010BD00002D
:100A6000001002400000FFF8FFFFF6FE08ED00E076
:100A700010B50121880700F0ECF920B104480068A6
:100A8000401C034908600121880700F0CDF810BD23
:100A90001800002000B587B001210420FFF782FE76
:100AA00001210420FFF79EFE01210820FFF79AFE96
:100AB0002A48008880B2ADF814002948008880B226
:100AC000ADF810000020ADF81600ADF8120004A932
:100AD000244800F0DFFA6020ADF800000120ADF8F6
:100AE00002000020ADF80600ADF8080069461D4878
:100AF00000F026FA69461B4800F07CFA0323102216
:100B000011461948FFF7E2FB032318224FF4007146
:100B10001648FFF7DBFB0323102280211348FFF761
:100B2000D5FB032318224FF480711048FFF7CEFB4A
:100B300001210C4800F087F808210A4800F050FA1B
:100B40000821084800F094FA0121064800F060F8F6
:100B50000121044800F06BF807B000BD240000201C
:100B6000280000200008004000080140000C01405F
:100B700030B587B005460C4601210820FFF712FE6C
:100B800001210420FFF72EFE0323182201211E4815
:100B9000FFF79CFBADF81450ADF810400020ADF805
:100BA0001600ADF8120004A9184800F073FA60208E
:100BB000ADF800000120ADF802000020ADF80400FF
:100BC00040F2DC50ADF806000020ADF80800ADF8AA
:100BD0000A00ADF80C00ADF80E0069460B4800F0B5
:100BE00059F90821094800F0A1F90121074800F04E
:100BF0002AF80121054800F00BF80121034800F014
:100C000016F807B030BD000000080140000C00409D
:100C100021B1028842F08002028004E002884FF68F
:100C20007F731A4002807047CA430282704721B125
:100C3000028842F00102028004E002884FF6FE734F
:100C40001A400280704731B1B0F8442042F40042AB
:100C5000A0F8442005E0B0F84420C2F30E02A0F84A
:100C60004420704710B504466848844208D10121E9
:100C7000C014FFF7C7FD0021E014FFF7C3FDC4E077
:100C8000B4F1804F08D101210846FFF79BFD0021F8
:100C90000120FFF797FDB8E05D48844208D10121AB
:100CA0000220FFF78FFD00210220FFF78BFDACE053
:100CB0005848844208D101210420FFF783FD002118
:100CC0000420FFF77FFDA0E05348844208D10121B2
:100CD0000820FFF777FD00210820FFF773FD94E05F
:100CE0004E48844208D101211020FFF76BFD0021FE
:100CF0001020FFF767FD88E04948844208D10121B0
:100D00002020FFF75FFD00212020FFF75BFD7CE046
:100D10004448844208D101214014FFF773FD0021AB
:100D20006014FFF76FFD70E03F48844209D1012154
:100D3000C804FFF767FD00214FF40020FFF762FDB4
:100D400063E03A48844209D101210805FFF75AFDC2
:100D500000214FF48010FFF755FD56E034488442DF
:100D600009D101214805FFF74DFD00214FF4001086
:100D7000FFF748FD49E02F48844208D10121402077
:100D8000FFF720FD00214020FFF71CFD3DE02A4831
:100D9000844208D101218020FFF714FD002180202A
:100DA000FFF710FD31E02548844208D1012180156C
:100DB000FFF708FD0021A015FFF704FD25E02048FE
:100DC000844209D101210804FFF71CFD00214FF4E2
:100DD0008030FFF717FD18E01A48844209D101213D
:100DE0004804FFF70FFD00214FF40030FFF70AFD24
:100DF0000BE01548844208D101218804FFF702FD69
:100E000000214FF48020FFF7FDFC10BD002C0140B5
:100E10000004004000080040000C004000100040AA
:100E20000014004000340140004C014000500140DB
:100E30000054014000180040001C00400020004009
:100E40000040014000440140004801400146888CB8
:100E5000704730B50246002000230024158A05EAB9
:100E60000103958905EA010413B10CB1012000E0EA
:100E7000002030BD1AB183890B43838102E083894E
:100E80008B438381704701894FF6F87211400181CD
:100E90007047000070B5002400220023058C4FF637
:100EA000FE7635400584028C8388048B4FF68F755F
:100EB0002C40B51E2C400D882C43751E2A400D89F0
:100EC0002A434D882A43144DA8420BD0134DA84203
:100ED00008D0134DA84205D0124DA84202D0124DA1
:100EE000A84213D14FF6F7752A404D892A434FF691
:100EF000FB752A408D882A434FF6FF652B404FF63D
:100F0000FF552B408D892B43CD892B438380048350
:100F1000CD888586028470BD002C014000340140DC
:100F20000040014000440140004801400A460021C1
:100F3000018B4FF6F773194011430183704700008E
:100F400070B5002400220023058C4FF6FF66354063
:100F50000584028C8388848B4FF68F752C404FF666
:100F6000FC752C400D882C434FF6FF552A400D8907
:100F70004FF6FF7606EA05252A434D8806EA052541
:100F80002A43154DA84202D0144DA8421DD14FF25C
:100F9000FF752A404D894FF6FF7606EA05252A435C
:100FA0004FF6FF352A408D8806EA05252A434EF67E
:100FB000FF752B404DF6FF752B408D8906EA051510
:100FC0002B43CD8906EA05152B4383808483CD8886
:100FD0008587028470BD0000002C01400034014070
:100FE0000A460021818B4FF6F77319401143818324
:100FF0007047000070B5002200230024058C4EF6D7
:10100000FF7635400584038C8488828B48F6FF7513
:101010002A404FF6FF452A400D884FF6FF7606EA34
:1010200005252A434DF6FF752B400D8906EA053547
:101030002B434D8806EA05352B430B4DA84202D0C1
:101040000A4DA84208D14BF6FF752C408D894FF60A
:10105000FF7606EA85152C4384808283CD88A0F82C
:101060004050038470BD0000002C0140003401405A
:101070000A460021818B4FF2FF7319404FF6FF7330
:1010800003EA022319438183704781877047A0F8E0
:1010900040107047002202881D4B98420ED01D4B15
:1010A00098420BD0B0F1804F08D01B4B984205D02E
:1010B0001A4B984202D01A4B984204D14FF68F73C4
:1010C0001A404B881A43174B984207D0164B984248
:1010D00004D04FF6FF431A40CB881A4302808B8816
:1010E00083850B8803850A4B98420BD0094B9842A5
:1010F00008D00E4B984205D00D4B984202D00D4BB4
:10110000984201D10B7A0386012383827047000045
:10111000002C014000340140000400400008004061
:10112000000C00400010004000140040004001404E
:1011300000440140004801402DE9F04104460D46BD
:10114000FFF76EF9FFF7A6FC00F0F8FB00F084FA59
:10115000FFF790F900F050FBEFE000F0A3F906462E
:10116000452E01D1BDE8F08102217448FFF749F90D
:101170007349087020217348FFF74CF90821724821
:10118000FFF748F96E48007801280BD12946204620
:1011900000F094FB0A2000F081FAFFF789FA0A2098
:1011A00000F07CFA6648007800287DD100F0D8FA7B
:1011B000074627B1012F1FD0022F76D15BE02021F7
:1011C0006048FFF729F908215F48FFF725F94FF438
:1011D000FA7000F063FA20215A48FFF71BF9082142
:1011E0005948FFF717F94FF4FA7000F057FA4FF427
:1011F0007A70FFF775FA9DE020215248FFF70CF94D
:1012000008215148FFF708F94FF47A7000F046FAC8
:1012100020214C48FFF7FEF808214B48FFF7FAF869
:101220004FF4FA70FFF728FA642000F037FA6420D0
:10123000FFF7A2F9C82000F031FA3220FFF77AF95F
:101240004FF42F7000F02AFA6420FFF7B9F9C82094
:1012500000F024FA3220FFF76DF94FF42F7000F000
:101260001DFA6420FFF7ACF9C82000F017FA32200D
:10127000FFF760F95EE020213248FFF7CDF8082142
:101280003148FFF7C9F84FF47A7000F007FA2021CF
:101290002C48FFF7BFF808212B48FFF7BBF84FF4A5
:1012A000FA70FFF7E9F901E046E026E0642000F07B
:1012B000F5F96420FFF784F9C82000F0EFF9322037
:1012C000FFF738F94FF42F7000F0E8F96420FFF7CA
:1012D00053F9C82000F0E2F93220FFF72BF94FF460
:1012E0002F7000F0DBF96420FFF746F9C82000F00A
:1012F000D5F93220FFF71EF91CE020211148FFF735
:101300008BF808211048FFF787F84FF4FA7000F0C7
:10131000C5F920210B48FFF77DF808210A48FFF79F
:1013200079F84FF4FA7000F0B9F94FF47A70FFF7DA
:10133000D7F900BF00BF00BF00BF0EE7000C01409F
:101340002200002000080140001001401FB50121CB
:101350000420FFF747FA01214804FFF723FA134856
:1013600000F044F80323182204211148FEF7AEFFD1
:101370000323042208210E48FEF7A8FF4FF416505D
:1013800000900020ADF80400ADF80600ADF80800AC
:10139000ADF80C000C20ADF80A006946034800F0D7
:1013A00091F80121014800F015F81FBD00440040EC
:1013B0000008014010B500BF2021054800F064F886
:1013C0000028F9D0024800F0E9F8C0B210BD0000D2
:1013D0000044004021B1828942F40052828104E03D
:1013E00082894DF6FF731A408281704710B504461A
:1013F0002048844209D101218803FFF703FA002124
:101400004FF48040FFF7FEF932E01B48844209D1D7
:1014100001214804FFF7D6F900214FF40030FFF70F
:10142000D1F925E01548844209D101218804FFF74C
:10143000C9F900214FF48020FFF7C4F918E01048E3
:10144000844209D10121C804FFF7BCF900214FF4FF
:101450000020FFF7B7F90BE00A48844208D10121C8
:101460000805FFF7AFF900214FF48010FFF7AAF944
:1014700010BD00000038014000440040004800401A
:10148000004C00400050004002460020B1F5007FB3
:1014900000D100BF13880B400BB1012000E00020F9
:1014A0007047000010B580210548FFF7EDFF0128C7
:1014B00004D1034800F072F8C0B210BD4D20FCE723
:1014C000004400402DE9F04786B005460E46002452
:1014D000A24600BFA1460027B08900B100BF2F4639
:1014E0002C8A4CF6FF700440F08804432C82AC89AF
:1014F0004EF6F3100440B0883189084371890843DF
:101500000443AC81AC8A4FF6FF400440B0890443E9
:10151000AC8201A8FFF786F91F48874202D1DDF8A7
:1015200010A001E0DDF80CA0A88900F4004040B153
:101530000AEBCA0000EB0A1031684900B0FBF1F871
:1015400007E00AEBCA0000EB0A1031688900B0FB23
:10155000F1F86420B8FBF0F004012009642101FBDC
:101560001089A88900F4004040B1322000EBC90086
:10157000B0FBF1F000F00700044308E0322000EB7C
:1015800009106421B0FBF1F000F00F0004432C813E
:1015900006B0BDE8F08700000038014001468888A9
:1015A000C0F30800704700BFFEE700002DE9F041DE
:1015B00000F05AF900204FF08041888400BF0221DA
:1015C0002048FEF71EFF0028F9D001218807FFF709
:1015D0002EFB00BF02211B48FEF713FF0128F9D0A4
:1015E00000214FF08040FFF722FB4FF08040FFF7D3
:1015F0002DFC154908601549096801EBC10202EB91
:101600000111114A126802EB810000F093FC804640
:1016100000F0D6FB06464FF066320D4B00F024FA80
:10162000044600F0EFF90B49086000204FF08041BC
:10163000888406490860012000F030F805480068F9
:10164000BDE8F081001001401400002018000020C7
:1016500066264D401C00002010B56FF00400FFF717
:10166000C1F90A4800680A49B0FBF1F0094908705D
:101670000846007800EB4001C1EBC0104FF6FF7147
:1016800001EAC0000449088010BD000000000020ED
:1016900000127A0042000020440000200146114A56
:1016A00012884A434FF0E0235A6100229A611A4699
:1016B000126942F001021A6100BF4FF0E022106986
:1016C00000F001021AB100F48032002AF5D04FF088
:1016D000E022126922F001024FF0E0231A61002299
:1016E0009A617047440000200146114A12784A432B
:1016F0004FF0E0235A6100229A611A46126942F0C3
:1017000001021A6100BF4FF0E022106900F00102EF
:101710001AB100F48032002AF5D04FF0E0221269AD
:1017200022F001024FF0E0231A6100229A61704713
:10173000420000202DE9F041054600260027002444
:1017400009E055F82400394600F00CFD02D255F8A6
:1017500024702646641C032CF3DB3046BDE8F08180
:1017600070B5002000F090F8FFF720FF04464FF41A
:101770007A60FFF793FF1C4804601C4800F084F86F
:101780004FF47A70FFF78AFFFFF710FF04464FF41B
:101790007A60FFF783FF144844604FF4FA60FFF764
:1017A0007DFF134800F070F84FF47A70FFF776FF72
:1017B000FFF7FCFE04464FF47A60FFF76FFF0A481C
:1017C0008460002000F060F80748FFF7B3FF05468B
:1017D000054951F82500074900F0C4FC01D228460C
:1017E00070BD4FF0FF30FBE748000020000074425E
:1017F000000088C20000A04110B5FFF72DFF47216F
:1018000040F6B730FFF7B4F900F0ACF810BDFFF7C1
:101810009DFDFFF721FF25E0FFF7CCFD0446302CAE
:1018200003D10020FEF731FD1BE0572C03D101202E
:10183000FEF72BFD15E0412C03D10220FEF725FD1C
:101840000FE0532C03D10320FEF71FFD09E0442CC9
:1018500003D10420FEF719FD03E0432C01D1FFF76B
:101860006BFC00BFD8E7000010B501210548FEF76A
:10187000D3FD1420FFF738FF01210248FEF7CAFD0F
:1018800010BD0000001001402DE9F0410446084958
:10189000204600F09BFB0746064900F0BDFA0646CD
:1018A00000F028FB85B204480580BDE8F081000007
:1018B000000070410080BB44340C004070B5044609
:1018C0000D4680211948FEF79CFD19490870012139
:1018D0001848FEF796FD1849087015480078012849
:1018E00007D108460078012803D16420FEF768FE7E
:1018F0001AE00F480078012807D10F48007820B976
:1019000029462046FEF780FE0EE00948007840B9DF
:1019100009480078012804D121462846FEF774FEC4
:1019200002E02820FEF706FE70BD0000000801401E
:1019300020000020000C01402100002010B50323EE
:10194000482280210548FEF7C1FC032348220121DB
:101950000348FEF7BBFCFFF79DF810BD00080140EF
:10196000000C01401FB501211020FEF73BFF4FF096
:101970008040FFF777F90323102201212048FEF76A
:10198000A5FC0323282202211D48FEF79FFC01210C
:101990000846FEF707FF4FF08040FFF774FA472034
:1019A000ADF804000020ADF806006320ADF8080093
:1019B0000020ADF80A008DF80C0001A94FF080401E
:1019C000FFF768FB012211469007FFF753FA4FF427
:1019D000A060FEF7DBFE1C208DF8000001208DF8D2
:1019E000030002208DF801008DF802006846FEF722
:1019F00095FE00214FF08040FFF719F91FBD000050
:101A00000010014021F00042A2F16052B2F5801FA7
:101A100001F0004328BFD2F17F6C0BD95FEA001CB4
:101A200043EAC20242EB507018BF704728BF20F053
:101A300001007047B2F5801FBCBF184670474FEADF
:101A4000410C1CF5001F02D2084600F086BB70B5A1
:101A500000F062F900000089FFF7F6BF4FF0004088
:101A6000A0F58000704700002DE9C04130B4DFF8D8
:101A7000A0C23CEA111418BF3CEA131400F0EC8039
:101A800081EA03051CEA111444EAD57418BF1CEA64
:101A9000131500F0C780A4EB05044FF0004545EA9C
:101AA000C12145EAC32341EA505143EA525304F1AC
:101AB0007F74994204F500344FEAC0204FEAC222F5
:101AC00008BF904200F09C804FEA13650FF2401669
:101AD000765D4FEA134506FB05F7C7F1807706FBF5
:101AE00007F74FEAD737A7FB03687642C8F5803877
:101AF000A7FB06CE38BFA8F1010807FB08E64FF0A8
:101B0000000EA6FB028CE6FB03CEDCF1000CCEF14E
:101B1000004E38BFAEF1010EA6FB0C584FF0000787
:101B20004FF00005E6FB0E87A1FB08C6A0FB07CE21
:101B300016EB0E0645F10005E1FB076515F1E04ED9
:101B40007EBFA4F580345FEA46066D4116F180073A
:101B500045F100054FEA17274FEA066647EA056791
:101B6000A6F1DE46B6F1805F4FEA15251FD938464B
:101B700024F0010C05EBC471BCF1FE6F01EB0C11FC
:101B800002D8F0BCBDE8008124425CBF01F5801E94
:101B90009EEAC47F02D4F0BCBDE80081244238D460
:101BA000F0BCA1F1C041BDE8004100F003B94FEA2B
:101BB000D22242EA43524FEAD323A7FB02864FEADE
:101BC000D02040EA415007FB03661EEA0E0F4FEAA1
:101BD000D12105FB026658BFA6EB0056B6EB0056B6
:101BE0004FEA520E4EEAC37E18EB0E0E56EB530E22
:101BF000BDD518EB02085E417F1C55F10005B6E724
:101C00004FF480154FF000074FF000064FF000082A
:101C1000ADE7F0BC4FF0000001F1C04101F0004120
:101C2000BDE8008111EA0C1F0CEA131500D00CE08E
:101C300013EA0C1F00F025804FF00000F0BC81EA91
:101C4000030101F00041BDE80081F0BCBDE80041A6
:101C500081EA030100F0AEB8F0BCBDE8004170B508
:101C600000F05AF8097EFC3E00F007B881EA030153
:101C70004FF0000001F00041704781EA030100F0DD
:101C800099B8F0BCBDE800414FF000002149704711
:101C9000FFFDFBF9F7F5F4F2F0EEEDEBE9E8E6E431
:101CA000E3E1E0DEDDDBDAD8D7D5D4D3D1D0CFCDB8
:101CB000CCCBCAC8C7C6C5C4C2C1C0BFBEBDBCBBF1
:101CC000BAB9B8B7B6B5B4B3B2B1B0AFAEADACABEC
:101CD000AAA9A8A8A7A6A5A4A3A3A2A1A09F9F9EC6
:101CE0009D9C9C9B9A999998979796959594939378
:101CF000929191908F8F8E8E8D8C8C8B8B8A89890F
:101D00008888878786858584848383828281818091
:101D10000000FF070000F87F0EF1020E2EF0030E08
:101D20005EF8046B364205D4012A43EB030515F532
:101D3000001F12D8012841EB010C1CF5001F0CD824
:101D40000ED14FEAD17C15F5001F0CEB4C0C0CF1B9
:101D5000020C08BF4CEBD37C04E04FF0080C01E010
:101D60004FEAD37C0CEB4C0526FA05F606F0070685
:101D7000B6F1040C06D20EEB860CBDE870404CF0B8
:101D8000010C6047DFE80CF0090B02024FF0004144
:101D90004FF00000A1F5002170BD19461046012842
:101DA00051EB010418BFD4F5001484BF002001F0EA
:101DB000004170BD0808A0F500114FEA31017047DD
:101DC00043004FEAD30C4FEA3C0C43401FBF40078F
:101DD0000CF1605113F0FE4F70471CF0006F03D1FF
:101DE00000200CF0004170470CF0004343EA5070B3
:101DF00010B540EACC0000F06AF900BF0000009284
:101E00004FEA0001FFF7D6BF4FF000414FF000004E
:101E1000A1F500217047000090EA010F48BF81F052
:101E2000004100F1D881421A3CBF801A89184FEA5C
:101E3000D0524FF07F4C1CEA410FA2EBD15318BF98
:101E40009CEA026F00F03B804FF0004C4CEA00200F
:101E50004CEA012121FA03FC10EB0C0C1ED202F11A
:101E6000FF325FEA1C2040EBC25038BF70471CF0C5
:101E70007F0F4FEA400C18BFBCF17F4F38BF70474F
:101E8000C3F12003994008BF20F00100BCF17F4F4F
:101E900038BF7047A0F1C04000F05FB94FEA3C0086
:101EA000000A40EBC25028BF1CF0FF0F4FEA400C65
:101EB000E6D018BFBCF17F4F38BF7047EAE79CEA15
:101EC000026F05D010EA5C0F08BF00F000407047B9
:101ED00010B500F0FCF800BF64FBBE3E401058BFD8
:101EE000C0F14040491058BFC1F140418142EFF379
:101EF00000807047C10DD1F19E0206DB4FEA00233E
:101F000043F0004323FA02F07047004207D54FEA3E
:101F10004001B1F1FE4F02D24FF00000704710B502
:101F200000F0D5F849922480002070476FEA200025
:101F30007047000010F0004148BF4042B0FA80F303
:101F400010FA03F2C3F19D030BD051EAC35101EB28
:101F50001220530638BF704700F1010008BF20F07F
:101F60000100704750EA010C00F113801CF5000FCE
:101F700058BFBCF5000F01D48842704707D710F551
:101F8000000F58BF11F5000F15D4884270478942E1
:101F900070471CF5000F04D5BCF5000FF7D5814242
:101FA00070474FF0807C1CEB400F38BF1CEB410F9B
:101FB00001D28142704710B500F089F8922449009F
:101FC0004FF000504FF08051FFF788BF4FF47F0C67
:101FD0001CEAD0121EBF1CEAD11392EA0C0F93EA3E
:101FE0000C0F00F0478090EA010F48BF42F4807266
:101FF0004FF0004C4CEA00204CEA012102EB0302B6
:10200000A0FB0113A2F50002002918BF43F0010351
:102010005B0028BF4FEA330342EB22425FEA132CF6
:102020004CEBC2502EBFBCEB436FB2F57C0F704738
:102030004FEA036CBCF1004F08BF20F00100B2F57D
:102040007C0F38BF70470BD582F0FF0212F5803F3E
:10205000C8BF704700F1C040D8BF00F000407047D3
:1020600000F5000C5FEA4C0C48BF7047B0F1C0406F
:1020700000F073B890EA010F0CEAD11348BF42F4A4
:102080008072624538BF634504D280EA010000F0E7
:102090000040704710B500F01AF800BF8900013EFB
:1020A00000F007B800F009B85FEA410C5FEA1C6C69
:1020B00008D080EA010000F050B85FEA400C5FEA07
:1020C0001C6CF6D14FF00040A0F5800070470EF177
:1020D000020E2EF0030E5EF8044B244204D44FEAA5
:1020E0004102B2F17F4F11D84FEA4003B3F17F4F65
:1020F0000CD80ED14FEAD07CB2F17F4F0CEB4C0CD8
:102100000CF1020C08BF4CEBD17C04E04FF0080C42
:1021100001E04FEAD17C0CEB4C0324FA03F404F009
:102120000704B4F1040C06D20EEB840CBDE8104099
:102130004CF0010C6047DFE80CF0070802024FF09A
:102140000040A0F5800010BD0846420018BFD2F143
:10215000807288BF00F0004010BDFF2141EAD050DE
:10216000C005704751EA000C00F113801CF5000F08
:1021700058BFBCF5000F01D48142704707D711F555
:10218000000F58BF10F5000F15D4814270478942E7
:1021900070471CF5000F04D5BCF5000FF7D5884239
:1021A00070474FF0807C1CEB410F38BF1CEB400F99
:1021B00001D28842704780EA010081EA000180EA8A
:1021C0000100FFF7F8BE000090EA010F48BF81F060
:1021D00000413FF528AE421A04D882F00042A0EB3D
:1021E000020011444FEAD0524FF07F4C1CEA410FDD
:1021F000A2EBD15318BF9CEA026F4AD04FF0004CBB
:102200004CEA00204CEA012121FA03FCB0EB0C0C53
:102210000FD412F0FE0F36D05FEA4C001DD500122D
:1022200040EBC25038BF70471CF03F0F18BF7047DB
:102230000BE0A2F101025FEA1C2040EBC25038BF64
:1022400070471CF07F0F18BF7047C3F120039940FF
:1022500014BF401E20F00100704780084FEA12238F
:1022600008BF7047B0FA80FCA2EB0C02CCF1280C3E
:1022700060FA0CF093EA122F04BF00EBC2507047D3
:102280004FEAC3707047130A5FEADC1008BF70475B
:10229000F6E79CEA026F04D010EA5C0F08BF00204A
:1022A000704710B5FFF713FF40DFF63E81F00040A6
:1022B00070470000D4220008000000204800000001
:1022C0006C0100081C230008480000207006000074
:1022D0008801000800A24A0400000000000000007D
:1022E00001020304060708090000000000000000C6
:1022F0000000000000000001E703000047000000AC
:1023000000000000000102030401020304060708A4
:0C231000090204060800000000000000A4
:04000005080001CD21
:00000001FF
